:1000000012C017C016C015C014C013C012C011C052
:1000100010C00FC00EC00DC00CC00BC00AC009C07C
:1000200008C007C006C011241FBECFEDCDBF38D019
:10003000E1C0E6CF0F93FC01862F90E063E070E013
:10004000C8D0E80FF91F2083418302830F910895E0
:10005000DC01CB016FB7F89448B3406158B35F7EC1
:1000600037E02D9148BB220F30F058BB000027FB32
:10007000315031F0F7CF000027FB315058BB91F7DA
:1000800037E048BB3EF0000058BB2D91019751F777
:100090006FBF08952D91019758BB21F76FBF089549
:1000A000CF93DF93CDB7DD27C851CDBF80E187BBAC
:1000B000CE0101966C0188E1F60111928A95E9F76B
:1000C000EE24E39410E000E081E3F82E68E170E0B4
:1000D000C601BEDF023061F128F4002351F0013087
:1000E000C9F06CC00430F1F180F1053009F447C06B
:1000F00065C081E0810F833308F04FC0E11005C077
:100100009F2D911B988B898B9A8B19828A831B82D6
:10011000182F55C091E0910F933308F042C0998396
:100120008F2D811B8A831B829C831D821E8233C07C
:1001300091E0910F9333C0F58F2D811B8C831D822D
:100140009E831F821886998726C091E0910F933372
:1001500070F51F8298878F2D811B89879A879B87CF
:100160001C8619C091E0910F933320F58F2D811BD0
:100170008A878B879C871D869E879F870CC091E00E
:10018000910F9333D0F48F2D811B9D878E878F879E
:10019000988B198A9A8B192F12C0E12C10E001E07C
:1001A0000EC010E002E00BC010E003E008C010E059
:1001B00004E005C010E005E002C010E000E0FFEF41
:1001C00020E782E0F15020408040E1F700C00000CD
:1001D0007DCF0024552704C0080E591F880F991F92
:1001E000009729F076956795B8F37105B9F7802DDA
:0801F000952F0895F894FFCF4C
:00000001FF
